{
    "_format": "hh-sol-artifact-1",
    "contractName": "Todolist",
    "sourceName": "contracts/Todolist.sol",
    "abi": [
        {
            "inputs": [
                {
                    "internalType": "string",
                    "name": "_content",
                    "type": "string"
                }
            ],
            "name": "createTask",
            "outputs": [],
            "stateMutability": "nonpayable",
            "type": "function"
        },
        {
            "inputs": [],
            "name": "getTasks",
            "outputs": [
                {
                    "components": [
                        {
                            "internalType": "uint256",
                            "name": "id",
                            "type": "uint256"
                        },
                        {
                            "internalType": "string",
                            "name": "contant",
                            "type": "string"
                        },
                        {
                            "internalType": "bool",
                            "name": "completed",
                            "type": "bool"
                        }
                    ],
                    "internalType": "struct Todolist.Task[]",
                    "name": "",
                    "type": "tuple[]"
                }
            ],
            "stateMutability": "view",
            "type": "function"
        },
        {
            "inputs": [
                {
                    "internalType": "uint256",
                    "name": "_id",
                    "type": "uint256"
                }
            ],
            "name": "toggleCompleted",
            "outputs": [],
            "stateMutability": "nonpayable",
            "type": "function"
        }
    ],
    "bytecode": "0x6080604052348015600f57600080fd5b50610c108061001f6000396000f3fe608060405234801561001057600080fd5b50600436106100415760003560e01c806304a87e3814610046578063111002aa14610064578063455f502414610080575b600080fd5b61004e61009c565b60405161005b9190610643565b60405180910390f35b61007e600480360381019061007991906107ae565b6101ee565b005b61009a60048036038101906100959190610823565b6102ff565b005b60606000803373ffffffffffffffffffffffffffffffffffffffff1673ffffffffffffffffffffffffffffffffffffffff168152602001908152602001600020805480602002602001604051908101604052809291908181526020016000905b828210156101e55783829060005260206000209060030201604051806060016040529081600082015481526020016001820180546101399061087f565b80601f01602080910402602001604051908101604052809291908181526020018280546101659061087f565b80156101b25780601f10610187576101008083540402835291602001916101b2565b820191906000526020600020905b81548152906001019060200180831161019557829003601f168201915b505050505081526020016002820160009054906101000a900460ff161515151581525050815260200190600101906100fc565b50505050905090565b60008060003373ffffffffffffffffffffffffffffffffffffffff1673ffffffffffffffffffffffffffffffffffffffff1681526020019081526020016000208054905090506000803373ffffffffffffffffffffffffffffffffffffffff1673ffffffffffffffffffffffffffffffffffffffff16815260200190815260200160002060405180606001604052808381526020018481526020016000151581525090806001815401808255809150506001900390600052602060002090600302016000909190919091506000820151816000015560208201518160010190816102d89190610a5c565b5060408201518160020160006101000a81548160ff02191690831515021790555050505050565b6000803373ffffffffffffffffffffffffffffffffffffffff1673ffffffffffffffffffffffffffffffffffffffff168152602001908152602001600020805490508110610382576040517f08c379a000000000000000000000000000000000000000000000000000000000815260040161037990610b8b565b60405180910390fd5b6000803373ffffffffffffffffffffffffffffffffffffffff1673ffffffffffffffffffffffffffffffffffffffff16815260200190815260200160002081815481106103d2576103d1610bab565b5b906000526020600020906003020160020160009054906101000a900460ff16156000803373ffffffffffffffffffffffffffffffffffffffff1673ffffffffffffffffffffffffffffffffffffffff168152602001908152602001600020828154811061044257610441610bab565b5b906000526020600020906003020160020160006101000a81548160ff02191690831515021790555050565b600081519050919050565b600082825260208201905092915050565b6000819050602082019050919050565b6000819050919050565b6104ac81610499565b82525050565b600081519050919050565b600082825260208201905092915050565b60005b838110156104ec5780820151818401526020810190506104d1565b60008484015250505050565b6000601f19601f8301169050919050565b6000610514826104b2565b61051e81856104bd565b935061052e8185602086016104ce565b610537816104f8565b840191505092915050565b60008115159050919050565b61055781610542565b82525050565b600060608301600083015161057560008601826104a3565b506020830151848203602086015261058d8282610509565b91505060408301516105a2604086018261054e565b508091505092915050565b60006105b9838361055d565b905092915050565b6000602082019050919050565b60006105d98261046d565b6105e38185610478565b9350836020820285016105f585610489565b8060005b85811015610631578484038952815161061285826105ad565b945061061d836105c1565b925060208a019950506001810190506105f9565b50829750879550505050505092915050565b6000602082019050818103600083015261065d81846105ce565b905092915050565b6000604051905090565b600080fd5b600080fd5b600080fd5b600080fd5b7f4e487b7100000000000000000000000000000000000000000000000000000000600052604160045260246000fd5b6106bb826104f8565b810181811067ffffffffffffffff821117156106da576106d9610683565b5b80604052505050565b60006106ed610665565b90506106f982826106b2565b919050565b600067ffffffffffffffff82111561071957610718610683565b5b610722826104f8565b9050602081019050919050565b82818337600083830152505050565b600061075161074c846106fe565b6106e3565b90508281526020810184848401111561076d5761076c61067e565b5b61077884828561072f565b509392505050565b600082601f83011261079557610794610679565b5b81356107a584826020860161073e565b91505092915050565b6000602082840312156107c4576107c361066f565b5b600082013567ffffffffffffffff8111156107e2576107e1610674565b5b6107ee84828501610780565b91505092915050565b61080081610499565b811461080b57600080fd5b50565b60008135905061081d816107f7565b92915050565b6000602082840312156108395761083861066f565b5b60006108478482850161080e565b91505092915050565b7f4e487b7100000000000000000000000000000000000000000000000000000000600052602260045260246000fd5b6000600282049050600182168061089757607f821691505b6020821081036108aa576108a9610850565b5b50919050565b60008190508160005260206000209050919050565b60006020601f8301049050919050565b600082821b905092915050565b6000600883026109127fffffffffffffffffffffffffffffffffffffffffffffffffffffffffffffffff826108d5565b61091c86836108d5565b95508019841693508086168417925050509392505050565b6000819050919050565b600061095961095461094f84610499565b610934565b610499565b9050919050565b6000819050919050565b6109738361093e565b61098761097f82610960565b8484546108e2565b825550505050565b600090565b61099c61098f565b6109a781848461096a565b505050565b5b818110156109cb576109c0600082610994565b6001810190506109ad565b5050565b601f821115610a10576109e1816108b0565b6109ea846108c5565b810160208510156109f9578190505b610a0d610a05856108c5565b8301826109ac565b50505b505050565b600082821c905092915050565b6000610a3360001984600802610a15565b1980831691505092915050565b6000610a4c8383610a22565b9150826002028217905092915050565b610a65826104b2565b67ffffffffffffffff811115610a7e57610a7d610683565b5b610a88825461087f565b610a938282856109cf565b600060209050601f831160018114610ac65760008415610ab4578287015190505b610abe8582610a40565b865550610b26565b601f198416610ad4866108b0565b60005b82811015610afc57848901518255600182019150602085019450602081019050610ad7565b86831015610b195784890151610b15601f891682610a22565b8355505b6001600288020188555050505b505050505050565b600082825260208201905092915050565b7f5461736b20646f6573206e6f7420657869737400000000000000000000000000600082015250565b6000610b75601383610b2e565b9150610b8082610b3f565b602082019050919050565b60006020820190508181036000830152610ba481610b68565b9050919050565b7f4e487b7100000000000000000000000000000000000000000000000000000000600052603260045260246000fdfea26469706673582212200bc80b0301a1551767222319c8a3b17bc202916f24cec3ee1ffe3627dc8ea8d264736f6c634300081c0033",
    "linkReferences": {},
    "deployedLinkReferences": {}
}